{
    "_format": "hh-sol-artifact-1",
    "contractName": "WavePortal",
    "sourceName": "contracts/WavePortal.sol",
    "abi": [
        {
            "inputs": [],
            "stateMutability": "payable",
            "type": "constructor"
        },
        {
            "anonymous": false,
            "inputs": [
                {
                    "indexed": true,
                    "internalType": "address",
                    "name": "from",
                    "type": "address"
                },
                {
                    "indexed": false,
                    "internalType": "string",
                    "name": "message",
                    "type": "string"
                },
                {
                    "indexed": false,
                    "internalType": "uint256",
                    "name": "timestamp",
                    "type": "uint256"
                }
            ],
            "name": "NewWave",
            "type": "event"
        },
        {
            "inputs": [],
            "name": "getTotalWaves",
            "outputs": [
                {
                    "internalType": "uint256",
                    "name": "",
                    "type": "uint256"
                }
            ],
            "stateMutability": "view",
            "type": "function"
        },
        {
            "inputs": [],
            "name": "getWaves",
            "outputs": [
                {
                    "components": [
                        {
                            "internalType": "address",
                            "name": "waver",
                            "type": "address"
                        },
                        {
                            "internalType": "string",
                            "name": "message",
                            "type": "string"
                        },
                        {
                            "internalType": "uint256",
                            "name": "timestamp",
                            "type": "uint256"
                        }
                    ],
                    "internalType": "struct WavePortal.Wave[]",
                    "name": "",
                    "type": "tuple[]"
                }
            ],
            "stateMutability": "view",
            "type": "function"
        },
        {
            "inputs": [
                {
                    "internalType": "string",
                    "name": "message",
                    "type": "string"
                }
            ],
            "name": "wave",
            "outputs": [],
            "stateMutability": "nonpayable",
            "type": "function"
        },
        {
            "inputs": [
                {
                    "internalType": "uint256",
                    "name": "",
                    "type": "uint256"
                }
            ],
            "name": "waves",
            "outputs": [
                {
                    "internalType": "address",
                    "name": "waver",
                    "type": "address"
                },
                {
                    "internalType": "string",
                    "name": "message",
                    "type": "string"
                },
                {
                    "internalType": "uint256",
                    "name": "timestamp",
                    "type": "uint256"
                }
            ],
            "stateMutability": "view",
            "type": "function"
        }
    ],
    "bytecode": "0x608060405260008081905550606444426200001b919062000033565b6200002791906200009a565b60018190555062000130565b6000620000408262000090565b91506200004d8362000090565b9250827fffffffffffffffffffffffffffffffffffffffffffffffffffffffffffffffff03821115620000855762000084620000d2565b5b828201905092915050565b6000819050919050565b6000620000a78262000090565b9150620000b48362000090565b925082620000c757620000c662000101565b5b828206905092915050565b7f4e487b7100000000000000000000000000000000000000000000000000000000600052601160045260246000fd5b7f4e487b7100000000000000000000000000000000000000000000000000000000600052601260045260246000fd5b6110d680620001406000396000f3fe608060405234801561001057600080fd5b506004361061004c5760003560e01c8063449d46c0146100515780639a2cdc081461006d578063a9d42f7e1461008b578063c781267a146100a9575b600080fd5b61006b60048036038101906100669190610950565b6100db565b005b610075610496565b6040516100829190610cf4565b60405180910390f35b61009361049f565b6040516100a09190610c20565b60405180910390f35b6100c360048036038101906100be9190610991565b6105f0565b6040516100d293929190610be2565b60405180910390f35b42610384600260003373ffffffffffffffffffffffffffffffffffffffff1673ffffffffffffffffffffffffffffffffffffffff168152602001908152602001600020546101299190610dd6565b10610169576040517f08c379a000000000000000000000000000000000000000000000000000000000815260040161016090610cd4565b60405180910390fd5b42600260003373ffffffffffffffffffffffffffffffffffffffff1673ffffffffffffffffffffffffffffffffffffffff1681526020019081526020016000208190555060016000808282546101bf9190610dd6565b92505081905550600360405180606001604052803373ffffffffffffffffffffffffffffffffffffffff16815260200183815260200142815250908060018154018082558091505060019003906000526020600020906003020160009091909190915060008201518160000160006101000a81548173ffffffffffffffffffffffffffffffffffffffff021916908373ffffffffffffffffffffffffffffffffffffffff1602179055506020820151816001019080519060200190610285929190610830565b50604082015181600201555050606444426001546102a39190610dd6565b6102ad9190610dd6565b6102b79190610f0d565b6001819055506102fe6040518060400160405280600881526020017f53656564206973200000000000000000000000000000000000000000000000008152506001546106d2565b603260015411610443576103466040518060400160405280600d81526020017f5072697a6520617761726465640000000000000000000000000000000000000081525061076e565b60006509184e72a000905047811115610394576040517f08c379a000000000000000000000000000000000000000000000000000000000815260040161038b90610cb4565b60405180910390fd5b60003373ffffffffffffffffffffffffffffffffffffffff16826040516103ba90610bcd565b60006040518083038185875af1925050503d80600081146103f7576040519150601f19603f3d011682016040523d82523d6000602084013e6103fc565b606091505b5050905080610440576040517f08c379a000000000000000000000000000000000000000000000000000000000815260040161043790610c94565b60405180910390fd5b50505b3373ffffffffffffffffffffffffffffffffffffffff167f6728ef66814a55b797863bf8ffcd954b19cbca4ed4f0e6cf04c980705fd82c36824260405161048b929190610c64565b60405180910390a250565b60008054905090565b60606003805480602002602001604051908101604052809291908181526020016000905b828210156105e757838290600052602060002090600302016040518060600160405290816000820160009054906101000a900473ffffffffffffffffffffffffffffffffffffffff1673ffffffffffffffffffffffffffffffffffffffff1673ffffffffffffffffffffffffffffffffffffffff16815260200160018201805461054c90610eaa565b80601f016020809104026020016040519081016040528092919081815260200182805461057890610eaa565b80156105c55780601f1061059a576101008083540402835291602001916105c5565b820191906000526020600020905b8154815290600101906020018083116105a857829003601f168201915b50505050508152602001600282015481525050815260200190600101906104c3565b50505050905090565b6003818154811061060057600080fd5b90600052602060002090600302016000915090508060000160009054906101000a900473ffffffffffffffffffffffffffffffffffffffff169080600101805461064990610eaa565b80601f016020809104026020016040519081016040528092919081815260200182805461067590610eaa565b80156106c25780601f10610697576101008083540402835291602001916106c2565b820191906000526020600020905b8154815290600101906020018083116106a557829003601f168201915b5050505050908060020154905083565b61076a82826040516024016106e8929190610c64565b6040516020818303038152906040527f9710a9d0000000000000000000000000000000000000000000000000000000007bffffffffffffffffffffffffffffffffffffffffffffffffffffffff19166020820180517bffffffffffffffffffffffffffffffffffffffffffffffffffffffff8381831617835250505050610807565b5050565b610804816040516024016107829190610c42565b6040516020818303038152906040527f41304fac000000000000000000000000000000000000000000000000000000007bffffffffffffffffffffffffffffffffffffffffffffffffffffffff19166020820180517bffffffffffffffffffffffffffffffffffffffffffffffffffffffff8381831617835250505050610807565b50565b60008151905060006a636f6e736f6c652e6c6f679050602083016000808483855afa5050505050565b82805461083c90610eaa565b90600052602060002090601f01602090048101928261085e57600085556108a5565b82601f1061087757805160ff19168380011785556108a5565b828001600101855582156108a5579182015b828111156108a4578251825591602001919060010190610889565b5b5090506108b291906108b6565b5090565b5b808211156108cf5760008160009055506001016108b7565b5090565b60006108e66108e184610d34565b610d0f565b9050828152602081018484840111156108fe57600080fd5b610909848285610e68565b509392505050565b600082601f83011261092257600080fd5b81356109328482602086016108d3565b91505092915050565b60008135905061094a81611089565b92915050565b60006020828403121561096257600080fd5b600082013567ffffffffffffffff81111561097c57600080fd5b61098884828501610911565b91505092915050565b6000602082840312156109a357600080fd5b60006109b18482850161093b565b91505092915050565b60006109c68383610b5f565b905092915050565b6109d781610e2c565b82525050565b6109e681610e2c565b82525050565b60006109f782610d75565b610a018185610d98565b935083602082028501610a1385610d65565b8060005b85811015610a4f5784840389528151610a3085826109ba565b9450610a3b83610d8b565b925060208a01995050600181019050610a17565b50829750879550505050505092915050565b6000610a6c82610d80565b610a768185610db4565b9350610a86818560208601610e77565b610a8f81610ffa565b840191505092915050565b6000610aa582610d80565b610aaf8185610dc5565b9350610abf818560208601610e77565b610ac881610ffa565b840191505092915050565b6000610ae0601883610dc5565b9150610aeb8261100b565b602082019050919050565b6000610b03600083610da9565b9150610b0e82611034565b600082019050919050565b6000610b26600f83610dc5565b9150610b3182611037565b602082019050919050565b6000610b49600b83610dc5565b9150610b5482611060565b602082019050919050565b6000606083016000830151610b7760008601826109ce565b5060208301518482036020860152610b8f8282610a61565b9150506040830151610ba46040860182610baf565b508091505092915050565b610bb881610e5e565b82525050565b610bc781610e5e565b82525050565b6000610bd882610af6565b9150819050919050565b6000606082019050610bf760008301866109dd565b8181036020830152610c098185610a9a565b9050610c186040830184610bbe565b949350505050565b60006020820190508181036000830152610c3a81846109ec565b905092915050565b60006020820190508181036000830152610c5c8184610a9a565b905092915050565b60006040820190508181036000830152610c7e8185610a9a565b9050610c8d6020830184610bbe565b9392505050565b60006020820190508181036000830152610cad81610ad3565b9050919050565b60006020820190508181036000830152610ccd81610b19565b9050919050565b60006020820190508181036000830152610ced81610b3c565b9050919050565b6000602082019050610d096000830184610bbe565b92915050565b6000610d19610d2a565b9050610d258282610edc565b919050565b6000604051905090565b600067ffffffffffffffff821115610d4f57610d4e610fcb565b5b610d5882610ffa565b9050602081019050919050565b6000819050602082019050919050565b600081519050919050565b600081519050919050565b6000602082019050919050565b600082825260208201905092915050565b600081905092915050565b600082825260208201905092915050565b600082825260208201905092915050565b6000610de182610e5e565b9150610dec83610e5e565b9250827fffffffffffffffffffffffffffffffffffffffffffffffffffffffffffffffff03821115610e2157610e20610f3e565b5b828201905092915050565b6000610e3782610e3e565b9050919050565b600073ffffffffffffffffffffffffffffffffffffffff82169050919050565b6000819050919050565b82818337600083830152505050565b60005b83811015610e95578082015181840152602081019050610e7a565b83811115610ea4576000848401525b50505050565b60006002820490506001821680610ec257607f821691505b60208210811415610ed657610ed5610f9c565b5b50919050565b610ee582610ffa565b810181811067ffffffffffffffff82111715610f0457610f03610fcb565b5b80604052505050565b6000610f1882610e5e565b9150610f2383610e5e565b925082610f3357610f32610f6d565b5b828206905092915050565b7f4e487b7100000000000000000000000000000000000000000000000000000000600052601160045260246000fd5b7f4e487b7100000000000000000000000000000000000000000000000000000000600052601260045260246000fd5b7f4e487b7100000000000000000000000000000000000000000000000000000000600052602260045260246000fd5b7f4e487b7100000000000000000000000000000000000000000000000000000000600052604160045260246000fd5b6000601f19601f8301169050919050565b7f4661696c656420746f207472616e73666572206d6f6e65790000000000000000600082015250565b50565b7f536f7272792c20496d2062726f6b650000000000000000000000000000000000600082015250565b7f576169742031356d696e73000000000000000000000000000000000000000000600082015250565b61109281610e5e565b811461109d57600080fd5b5056fea2646970667358221220543c93e57fc485bc23c78d8b01c51d37627102502339ed33d9772905940fe91a64736f6c63430008040033",
    "linkReferences": {},
    "deployedLinkReferences": {}
}